{
  "contractName": "Records",
  "abi": [
    {
      "inputs": [],
      "payable": false,
      "stateMutability": "nonpayable",
      "type": "constructor",
      "signature": "constructor"
    },
    {
      "constant": false,
      "inputs": [
        {
          "name": "_address",
          "type": "address"
        }
      ],
      "name": "register",
      "outputs": [],
      "payable": false,
      "stateMutability": "nonpayable",
      "type": "function",
      "signature": "0x4420e486"
    },
    {
      "constant": false,
      "inputs": [
        {
          "name": "_id",
          "type": "bytes32"
        }
      ],
      "name": "createContract",
      "outputs": [],
      "payable": false,
      "stateMutability": "nonpayable",
      "type": "function",
      "signature": "0x3f811b80"
    },
    {
      "constant": false,
      "inputs": [
        {
          "name": "_id",
          "type": "bytes32"
        },
        {
          "name": "_dateDelivery",
          "type": "bytes32"
        },
        {
          "name": "_paymentDate",
          "type": "bytes32"
        },
        {
          "name": "_msg",
          "type": "bytes32[100]"
        },
        {
          "name": "_orderAmt",
          "type": "uint256"
        }
      ],
      "name": "setInitial",
      "outputs": [],
      "payable": false,
      "stateMutability": "nonpayable",
      "type": "function",
      "signature": "0xc0eacf51"
    },
    {
      "constant": true,
      "inputs": [
        {
          "name": "_id",
          "type": "bytes32"
        }
      ],
      "name": "getInitial",
      "outputs": [
        {
          "name": "",
          "type": "bytes32"
        },
        {
          "name": "",
          "type": "bytes32"
        },
        {
          "name": "",
          "type": "bytes32[100]"
        },
        {
          "name": "",
          "type": "uint256"
        }
      ],
      "payable": false,
      "stateMutability": "view",
      "type": "function",
      "signature": "0x88ccbb28"
    },
    {
      "constant": false,
      "inputs": [
        {
          "name": "_id",
          "type": "bytes32"
        },
        {
          "name": "_sellerApproval",
          "type": "bool"
        },
        {
          "name": "_workingCapital",
          "type": "uint256"
        },
        {
          "name": "_workingCapitalDeadline",
          "type": "bytes32"
        }
      ],
      "name": "setSellerFinal",
      "outputs": [],
      "payable": false,
      "stateMutability": "nonpayable",
      "type": "function",
      "signature": "0x2b3b3d44"
    },
    {
      "constant": true,
      "inputs": [
        {
          "name": "_id",
          "type": "bytes32"
        }
      ],
      "name": "getSellerFinal",
      "outputs": [
        {
          "name": "",
          "type": "bool"
        },
        {
          "name": "",
          "type": "uint256"
        },
        {
          "name": "",
          "type": "bytes32"
        }
      ],
      "payable": false,
      "stateMutability": "view",
      "type": "function",
      "signature": "0xc6b335f5"
    },
    {
      "constant": false,
      "inputs": [
        {
          "name": "_id",
          "type": "bytes32"
        },
        {
          "name": "_backingPercent",
          "type": "uint256"
        },
        {
          "name": "_buyerApproval",
          "type": "bool"
        },
        {
          "name": "_interestRate",
          "type": "uint256"
        }
      ],
      "name": "setBuyerFinal",
      "outputs": [],
      "payable": false,
      "stateMutability": "nonpayable",
      "type": "function",
      "signature": "0x025065cf"
    },
    {
      "constant": true,
      "inputs": [
        {
          "name": "_id",
          "type": "bytes32"
        }
      ],
      "name": "getBuyerFinal",
      "outputs": [
        {
          "name": "",
          "type": "uint256"
        },
        {
          "name": "",
          "type": "bool"
        },
        {
          "name": "",
          "type": "uint256"
        }
      ],
      "payable": false,
      "stateMutability": "view",
      "type": "function",
      "signature": "0xd80d0236"
    },
    {
      "constant": false,
      "inputs": [
        {
          "name": "_id",
          "type": "bytes32"
        },
        {
          "name": "_investor",
          "type": "address"
        },
        {
          "name": "_investment",
          "type": "uint256"
        }
      ],
      "name": "addInvestor",
      "outputs": [],
      "payable": false,
      "stateMutability": "nonpayable",
      "type": "function",
      "signature": "0xd5c4f9c2"
    },
    {
      "constant": true,
      "inputs": [
        {
          "name": "_id",
          "type": "bytes32"
        }
      ],
      "name": "getInvestors",
      "outputs": [
        {
          "name": "",
          "type": "address[]"
        }
      ],
      "payable": false,
      "stateMutability": "view",
      "type": "function",
      "signature": "0x380febde"
    },
    {
      "constant": false,
      "inputs": [
        {
          "name": "_id",
          "type": "bytes32"
        },
        {
          "name": "_orderCompletion",
          "type": "bool"
        }
      ],
      "name": "setOrderCompletion",
      "outputs": [],
      "payable": false,
      "stateMutability": "nonpayable",
      "type": "function",
      "signature": "0xab73c5e8"
    },
    {
      "constant": false,
      "inputs": [
        {
          "name": "_from",
          "type": "address"
        },
        {
          "name": "tokens",
          "type": "uint256"
        }
      ],
      "name": "cashOut",
      "outputs": [],
      "payable": false,
      "stateMutability": "nonpayable",
      "type": "function",
      "signature": "0x22405443"
    },
    {
      "constant": false,
      "inputs": [
        {
          "name": "_to",
          "type": "address"
        },
        {
          "name": "tokens",
          "type": "uint256"
        }
      ],
      "name": "transfer",
      "outputs": [],
      "payable": false,
      "stateMutability": "nonpayable",
      "type": "function",
      "signature": "0xa9059cbb"
    },
    {
      "constant": true,
      "inputs": [
        {
          "name": "_user",
          "type": "address"
        }
      ],
      "name": "getBalance",
      "outputs": [
        {
          "name": "",
          "type": "uint256"
        }
      ],
      "payable": false,
      "stateMutability": "view",
      "type": "function",
      "signature": "0xf8b2cb4f"
    }
  ],
  "bytecode": "0x608060405234801561001057600080fd5b50612ff1806100206000396000f3fe6080604052600436106100cf5763ffffffff7c0100000000000000000000000000000000000000000000000000000000600035041663025065cf81146100d457806322405443146101145780632b3b3d441461014d578063380febde1461018b5780633f811b80146102055780634420e4861461022f57806388ccbb2814610262578063a9059cbb146102dc578063ab73c5e814610315578063c0eacf5114610347578063c6b335f5146103b9578063d5c4f9c214610403578063d80d023614610442578063f8b2cb4f1461048a575b600080fd5b3480156100e057600080fd5b50610112600480360360808110156100f757600080fd5b508035906020810135906040810135151590606001356104cf565b005b34801561012057600080fd5b506101126004803603604081101561013757600080fd5b50600160a060020a038135169060200135610666565b34801561015957600080fd5b506101126004803603608081101561017057600080fd5b50803590602081013515159060408101359060600135610705565b34801561019757600080fd5b506101b5600480360360208110156101ae57600080fd5b503561087e565b60408051602080825283518183015283519192839290830191858101910280838360005b838110156101f15781810151838201526020016101d9565b505050509050019250505060405180910390f35b34801561021157600080fd5b506101126004803603602081101561022857600080fd5b5035610977565b34801561023b57600080fd5b506101126004803603602081101561025257600080fd5b5035600160a060020a03166109df565b34801561026e57600080fd5b5061028c6004803603602081101561028557600080fd5b5035610a61565b6040518085815260200184815260200183606460200280838360005b838110156102c05781810151838201526020016102a8565b5050505090500182815260200194505050505060405180910390f35b3480156102e857600080fd5b50610112600480360360408110156102ff57600080fd5b50600160a060020a038135169060200135610cd4565b34801561032157600080fd5b506101126004803603604081101561033857600080fd5b50803590602001351515610d43565b34801561035357600080fd5b506101126004803603610d0081101561036b57600080fd5b60408051610c80818101835284359460208101359493810135938101929091610ce083019190606084019060649083908390808284376000920191909152509194505090359150610e4b9050565b3480156103c557600080fd5b506103e3600480360360208110156103dc57600080fd5b5035611092565b604080519315158452602084019290925282820152519081900360600190f35b34801561040f57600080fd5b506101126004803603606081101561042657600080fd5b50803590600160a060020a036020820135169060400135611257565b34801561044e57600080fd5b5061046c6004803603602081101561046557600080fd5b50356112e8565b60408051938452911515602084015282820152519081900360600190f35b34801561049657600080fd5b506104bd600480360360208110156104ad57600080fd5b5035600160a060020a0316611474565b60408051918252519081900360200190f35b6000848152602081905260408082205481517f63e78e9b000000000000000000000000000000000000000000000000000000008152600481018790529151600160a060020a03909116926363e78e9b926024808201939182900301818387803b15801561053b57600080fd5b505af115801561054f573d6000803e3d6000fd5b5050506000858152602081905260408082205481517f900089ec00000000000000000000000000000000000000000000000000000000815286151560048201529151600160a060020a03909116935063900089ec9260248084019391929182900301818387803b1580156105c257600080fd5b505af11580156105d6573d6000803e3d6000fd5b5050506000858152602081905260408082205481517f5f84f302000000000000000000000000000000000000000000000000000000008152600481018690529151600160a060020a039091169350635f84f3029260248084019391929182900301818387803b15801561064857600080fd5b505af115801561065c573d6000803e3d6000fd5b5050505050505050565b600154604080517f22405443000000000000000000000000000000000000000000000000000000008152600160a060020a038581166004830152602482018590529151919092169163224054439160448083019260209291908290030181600087803b1580156106d557600080fd5b505af11580156106e9573d6000803e3d6000fd5b505050506040513d60208110156106ff57600080fd5b50505050565b6000848152602081905260408082205481517f03126c9a00000000000000000000000000000000000000000000000000000000815286151560048201529151600160a060020a03909116926303126c9a926024808201939182900301818387803b15801561077257600080fd5b505af1158015610786573d6000803e3d6000fd5b5050506000858152602081905260408082205481517f6b45b318000000000000000000000000000000000000000000000000000000008152600481018790529151600160a060020a039091169350636b45b3189260248084019391929182900301818387803b1580156107f857600080fd5b505af115801561080c573d6000803e3d6000fd5b5050506000858152602081905260408082205481517f5f1f6f55000000000000000000000000000000000000000000000000000000008152600481018690529151600160a060020a039091169350635f1f6f559260248084019391929182900301818387803b15801561064857600080fd5b6000818152602081905260408082205481517fb2f5a54c0000000000000000000000000000000000000000000000000000000081529151606093600160a060020a039092169263b2f5a54c926004808301939192829003018186803b1580156108e657600080fd5b505afa1580156108fa573d6000803e3d6000fd5b505050506040513d6000823e601f3d908101601f19168201604052602081101561092357600080fd5b81019080805164010000000081111561093b57600080fd5b8201602081018481111561094e57600080fd5b815185602082028301116401000000008211171561096b57600080fd5b50909695505050505050565b80610980611510565b90815260405190819003602001906000f0801580156109a3573d6000803e3d6000fd5b50600091825260208290526040909120805473ffffffffffffffffffffffffffffffffffffffff1916600160a060020a03909216919091179055565b600254604080517f4420e486000000000000000000000000000000000000000000000000000000008152600160a060020a03848116600483015291519190921691634420e48691602480830192600092919082900301818387803b158015610a4657600080fd5b505af1158015610a5a573d6000803e3d6000fd5b5050505050565b600080610a6c611520565b6000848152602081815260408083205481517fdfab317a0000000000000000000000000000000000000000000000000000000081529151600160a060020a039091169263dfab317a9260048082019391829003018186803b158015610ad057600080fd5b505afa158015610ae4573d6000803e3d6000fd5b505050506040513d6020811015610afa57600080fd5b5051600086815260208181526040918290205482517f2e19ce5b0000000000000000000000000000000000000000000000000000000081529251600160a060020a0390911692632e19ce5b926004808301939192829003018186803b158015610b6257600080fd5b505afa158015610b76573d6000803e3d6000fd5b505050506040513d6020811015610b8c57600080fd5b5051600087815260208190526040908190205481517fb4233e9f0000000000000000000000000000000000000000000000000000000081529151600160a060020a039091169163b4233e9f91600480830192610c80929190829003018186803b158015610bf857600080fd5b505afa158015610c0c573d6000803e3d6000fd5b505050506040513d601f19601f82011682018060405250610c80811015610c3257600080fd5b50600088815260208181526040918290205482517fa62a4c850000000000000000000000000000000000000000000000000000000081529251600160a060020a039091169263a62a4c85926004808301939192829003018186803b158015610c9957600080fd5b505afa158015610cad573d6000803e3d6000fd5b505050506040513d6020811015610cc357600080fd5b505192989197509550909350915050565b600154604080517fa9059cbb000000000000000000000000000000000000000000000000000000008152600160a060020a038581166004830152602482018590529151919092169163a9059cbb9160448083019260209291908290030181600087803b1580156106d557600080fd5b6000828152602081905260408082205481517fb071084100000000000000000000000000000000000000000000000000000000815284151560048201529151600160a060020a039091169263b0710841926024808201939182900301818387803b158015610db057600080fd5b505af1158015610dc4573d6000803e3d6000fd5b5050506000838152602081905260408082205481517fda3857560000000000000000000000000000000000000000000000000000000081529151600160a060020a03909116935063da3857569260048084019391929182900301818387803b158015610e2f57600080fd5b505af1158015610e43573d6000803e3d6000fd5b505050505050565b6000858152602081905260408082205481517fe86ea0e8000000000000000000000000000000000000000000000000000000008152600481018890529151600160a060020a039091169263e86ea0e8926024808201939182900301818387803b158015610eb757600080fd5b505af1158015610ecb573d6000803e3d6000fd5b5050506000868152602081905260408082205481517fe261c35e000000000000000000000000000000000000000000000000000000008152600481018890529151600160a060020a03909116935063e261c35e9260248084019391929182900301818387803b158015610f3d57600080fd5b505af1158015610f51573d6000803e3d6000fd5b5050506000868152602081905260408082205490517ff143fb8f000000000000000000000000000000000000000000000000000000008152600160a060020a03909116925063f143fb8f9185916004019081908390610c80908190849084905b83811015610fc9578181015183820152602001610fb1565b50505050905001915050600060405180830381600087803b158015610fed57600080fd5b505af1158015611001573d6000803e3d6000fd5b5050506000868152602081905260408082205481517f70113501000000000000000000000000000000000000000000000000000000008152600481018690529151600160a060020a03909116935063701135019260248084019391929182900301818387803b15801561107357600080fd5b505af1158015611087573d6000803e3d6000fd5b505050505050505050565b6000818152602081815260408083205481517f1ac84b22000000000000000000000000000000000000000000000000000000008152915184938493600160a060020a0390931692631ac84b229260048083019392829003018186803b1580156110fa57600080fd5b505afa15801561110e573d6000803e3d6000fd5b505050506040513d602081101561112457600080fd5b5051600085815260208181526040918290205482517f934c85d70000000000000000000000000000000000000000000000000000000081529251600160a060020a039091169263934c85d7926004808301939192829003018186803b15801561118c57600080fd5b505afa1580156111a0573d6000803e3d6000fd5b505050506040513d60208110156111b657600080fd5b5051600086815260208181526040918290205482517f5d0f018f0000000000000000000000000000000000000000000000000000000081529251600160a060020a0390911692635d0f018f926004808301939192829003018186803b15801561121e57600080fd5b505afa158015611232573d6000803e3d6000fd5b505050506040513d602081101561124857600080fd5b50519196909550909350915050565b6000838152602081905260408082205481517fec20b457000000000000000000000000000000000000000000000000000000008152600160a060020a038681166004830152602482018690529251929091169263ec20b4579260448084019382900301818387803b1580156112cb57600080fd5b505af11580156112df573d6000803e3d6000fd5b50505050505050565b6000818152602081815260408083205481517fcb8d3ea8000000000000000000000000000000000000000000000000000000008152915184938493600160a060020a039093169263cb8d3ea89260048083019392829003018186803b15801561135057600080fd5b505afa158015611364573d6000803e3d6000fd5b505050506040513d602081101561137a57600080fd5b5051600085815260208181526040918290205482517f3fad16a60000000000000000000000000000000000000000000000000000000081529251600160a060020a0390911692633fad16a6926004808301939192829003018186803b1580156113e257600080fd5b505afa1580156113f6573d6000803e3d6000fd5b505050506040513d602081101561140c57600080fd5b5051600086815260208181526040918290205482517f5257b5660000000000000000000000000000000000000000000000000000000081529251600160a060020a0390911692635257b566926004808301939192829003018186803b15801561121e57600080fd5b600154604080517f70a08231000000000000000000000000000000000000000000000000000000008152600160a060020a038481166004830152915160009392909216916370a0823191602480820192602092909190829003018186803b1580156114de57600080fd5b505afa1580156114f2573d6000803e3d6000fd5b505050506040513d602081101561150857600080fd5b505192915050565b604051611a858061154183390190565b610c8060405190810160405280606490602082028038833950919291505056fe608060405234801561001057600080fd5b50604051602080611a858339810180604052602081101561003057600080fd5b5051600155611a41806100446000396000f3fe60806040526004361061017f5763ffffffff7c010000000000000000000000000000000000000000000000000000000060003504166303126c9a8114610184578063146b58df146101b25780631ac84b22146101f75780632e19ce5b146102205780633fad16a6146102355780635257b5661461024a5780635424547d1461025f5780635d0f018f146102985780635f1f6f55146102ad5780635f84f302146102d7578063603daf9a1461030157806363e78e9b146103325780636b45b3181461035c5780637011350114610386578063900089ec146103b0578063934c85d7146103dc578063a3f09ad6146103f1578063a62a4c8514610424578063b071084114610439578063b2f5a54c14610465578063b4233e9f146104ca578063cb8d3ea814610518578063da3857561461052d578063dbd0e1b614610542578063dfab317a14610557578063e261c35e1461056c578063e86ea0e814610596578063e99d2866146105c0578063ec20b457146105f3578063f143fb8f1461062c575b600080fd5b34801561019057600080fd5b506101b0600480360360208110156101a757600080fd5b5035151561068d565b005b3480156101be57600080fd5b506101e5600480360360208110156101d557600080fd5b5035600160a060020a031661073d565b60408051918252519081900360200190f35b34801561020357600080fd5b5061020c610758565b604080519115158252519081900360200190f35b34801561022c57600080fd5b506101e5610762565b34801561024157600080fd5b5061020c61076b565b34801561025657600080fd5b506101e5610774565b34801561026b57600080fd5b506101b06004803603604081101561028257600080fd5b50600160a060020a03813516906020013561077a565b3480156102a457600080fd5b506101e5610953565b3480156102b957600080fd5b506101b0600480360360208110156102d057600080fd5b5035610959565b3480156102e357600080fd5b506101b0600480360360208110156102fa57600080fd5b50356109e8565b34801561030d57600080fd5b50610316610a82565b60408051600160a060020a039092168252519081900360200190f35b34801561033e57600080fd5b506101b06004803603602081101561035557600080fd5b5035610af9565b34801561036857600080fd5b506101b06004803603602081101561037f57600080fd5b5035610b93565b34801561039257600080fd5b506101b0600480360360208110156103a957600080fd5b5035610c34565b3480156103bc57600080fd5b506101b0600480360360208110156103d357600080fd5b50351515610c81565b3480156103e857600080fd5b506101e5610d2c565b3480156103fd57600080fd5b506101b06004803603602081101561041457600080fd5b5035600160a060020a0316610d32565b34801561043057600080fd5b506101e5610e9e565b34801561044557600080fd5b506101b06004803603602081101561045c57600080fd5b50351515610ea4565b34801561047157600080fd5b5061047a61103b565b60408051602080825283518183015283519192839290830191858101910280838360005b838110156104b657818101518382015260200161049e565b505050509050019250505060405180910390f35b3480156104d657600080fd5b506104df611191565b6040518082610c8080838360005b838110156105055781810151838201526020016104ed565b5050505090500191505060405180910390f35b34801561052457600080fd5b506101e56111cd565b34801561053957600080fd5b506101b06111d3565b34801561054e57600080fd5b5061031661144b565b34801561056357600080fd5b506101e56114c2565b34801561057857600080fd5b506101b06004803603602081101561058f57600080fd5b50356114c8565b3480156105a257600080fd5b506101b0600480360360208110156105b957600080fd5b5035611509565b3480156105cc57600080fd5b506101b0600480360360208110156105e357600080fd5b5035600160a060020a031661154a565b3480156105ff57600080fd5b506101b06004803603604081101561061657600080fd5b50600160a060020a0381351690602001356116b6565b34801561063857600080fd5b506101b06004803603610c8081101561065057600080fd5b8101908080610c80019060648060200260405190810160405280929190826064602002808284376000920191909152509194506119169350505050565b60075460085460705460ff1680156106dd576040805160e560020a62461bcd02815260206004820152601160248201526000805160206119b6833981519152604482015290519081900360640190fd5b600a54801515610725576040805160e560020a62461bcd02815260206004820152600d60248201526000805160206119f6833981519152604482015290519081900360640190fd5b50506070805460ff1916931515939093179092555050565b600160a060020a031660009081526004602052604090205490565b60705460ff165b90565b600854805b5090565b60735460ff1690565b60715490565b60705460ff1615156001146107c7576040805160e560020a62461bcd0281526020600482015260146024820152600080516020611996833981519152604482015290519081900360640190fd5b60705460ff161515600114610814576040805160e560020a62461bcd0281526020600482015260146024820152600080516020611996833981519152604482015290519081900360640190fd5b60725480151561085c576040805160e560020a62461bcd02815260206004820152600d60248201526000805160206119f6833981519152604482015290519081900360640190fd5b6071548015156108a4576040805160e560020a62461bcd02815260206004820152600d60248201526000805160206119f6833981519152604482015290519081900360640190fd5b60008054600354604080517f23b872dd000000000000000000000000000000000000000000000000000000008152600160a060020a038981166004830152928316602482015260448101889052905191909216926323b872dd92606480820193602093909283900390910190829087803b15801561092157600080fd5b505af1158015610935573d6000803e3d6000fd5b505050506040513d602081101561094b57600080fd5b505050505050565b60095490565b600754600854600a548015156109a7576040805160e560020a62461bcd02815260206004820152600d60248201526000805160206119f6833981519152604482015290519081900360640190fd5b6009546040805160e560020a62461bcd02815260206004820152601a60248201526000805160206119d6833981519152604482015290519081900360640190fd5b6071548015610a2f576040805160e560020a62461bcd02815260206004820152601a60248201526000805160206119d6833981519152604482015290519081900360640190fd5b60705460ff161515600114610a7c576040805160e560020a62461bcd0281526020600482015260146024820152600080516020611996833981519152604482015290519081900360640190fd5b50607155565b600254600090600160a060020a0316801515610ae8576040805160e560020a62461bcd02815260206004820152601160248201527f56616c7565206e6f742079657420736574000000000000000000000000000000604482015290519081900360640190fd5b5050600254600160a060020a031690565b6072548015610b40576040805160e560020a62461bcd02815260206004820152601a60248201526000805160206119d6833981519152604482015290519081900360640190fd5b60705460ff161515600114610b8d576040805160e560020a62461bcd0281526020600482015260146024820152600080516020611996833981519152604482015290519081900360640190fd5b50607255565b600754600854600a54801515610be1576040805160e560020a62461bcd02815260206004820152600d60248201526000805160206119f6833981519152604482015290519081900360640190fd5b606f548015610c28576040805160e560020a62461bcd02815260206004820152601a60248201526000805160206119d6833981519152604482015290519081900360640190fd5b505050606f9190915550565b600a548015610c7b576040805160e560020a62461bcd02815260206004820152601a60248201526000805160206119d6833981519152604482015290519081900360640190fd5b50600a55565b60705460ff161515600114610cce576040805160e560020a62461bcd0281526020600482015260146024820152600080516020611996833981519152604482015290519081900360640190fd5b60735460ff168015610d18576040805160e560020a62461bcd02815260206004820152601160248201526000805160206119b6833981519152604482015290519081900360640190fd5b506073805460ff1916911515919091179055565b606f5490565b600254600160a060020a03168015610d82576040805160e560020a62461bcd02815260206004820152601160248201526000805160206119b6833981519152604482015290519081900360640190fd5b600554604080517fc3c5a547000000000000000000000000000000000000000000000000000000008152600160a060020a03808616600483015291518593929092169163c3c5a54791602480820192602092909190829003018186803b158015610deb57600080fd5b505afa158015610dff573d6000803e3d6000fd5b505050506040513d6020811015610e1557600080fd5b50511515610e6d576040805160e560020a62461bcd02815260206004820152600d60248201527f4163636573732044656e69656400000000000000000000000000000000000000604482015290519081900360640190fd5b50506002805473ffffffffffffffffffffffffffffffffffffffff1916600160a060020a0392909216919091179055565b600a5490565b60705460ff161515600114610ef1576040805160e560020a62461bcd0281526020600482015260146024820152600080516020611996833981519152604482015290519081900360640190fd5b60705460ff161515600114610f3e576040805160e560020a62461bcd0281526020600482015260146024820152600080516020611996833981519152604482015290519081900360640190fd5b607254801515610f86576040805160e560020a62461bcd02815260206004820152600d60248201526000805160206119f6833981519152604482015290519081900360640190fd5b607154801515610fce576040805160e560020a62461bcd02815260206004820152600d60248201526000805160206119f6833981519152604482015290519081900360640190fd5b607354610100900460ff16801561101d576040805160e560020a62461bcd02815260206004820152601160248201526000805160206119b6833981519152604482015290519081900360640190fd5b5050607380549215156101000261ff00199093169290921790915550565b6006546060901515611097576040805160e560020a62461bcd02815260206004820152601760248201527f546865726520617265206e6f20696e76657374726f7273000000000000000000604482015290519081900360640190fd5b60705460ff1615156001146110e4576040805160e560020a62461bcd0281526020600482015260146024820152600080516020611996833981519152604482015290519081900360640190fd5b60705460ff161515600114611131576040805160e560020a62461bcd0281526020600482015260146024820152600080516020611996833981519152604482015290519081900360640190fd5b600680548060200260200160405190810160405280929190818152602001828054801561118757602002820191906000526020600020905b8154600160a060020a03168152600190910190602001808311611169575b5050505050905090565b611199611927565b60408051610c8081019182905290600b9060649082845b8154815260200190600101908083116111b0575050505050905090565b60725490565b607354610100900460ff16600181151514611238576040805160e560020a62461bcd02815260206004820152601960248201527f4f726465722068617320746f20626520636f6d706c6574656400000000000000604482015290519081900360640190fd5b60005b600654811015611398576004600060068381548110151561125857fe5b6000918252602080832090910154600160a060020a039081168452908301939093526040909101812054600a80549190910390555460025460068054928416936323b872dd93921691859081106112ab57fe5b600091825260208220015460068054600160a060020a0390921692600492909190889081106112d657fe5b6000918252602080832090910154600160a060020a03908116845283820194909452604092830182205483517c010000000000000000000000000000000000000000000000000000000063ffffffff8a160281529685166004880152949093166024860152604485019390935251606480850194929391928390030190829087803b15801561136457600080fd5b505af1158015611378573d6000803e3d6000fd5b505050506040513d602081101561138e57600080fd5b505060010161123b565b5060008054600254600354600a54604080517f23b872dd000000000000000000000000000000000000000000000000000000008152600160a060020a039485166004820152928416602484015260448301919091525191909216926323b872dd92606480820193602093909283900390910190829087803b15801561141c57600080fd5b505af1158015611430573d6000803e3d6000fd5b505050506040513d602081101561144657600080fd5b505050565b600354600090600160a060020a03168015156114b1576040805160e560020a62461bcd02815260206004820152601160248201527f56616c7565206e6f742079657420736574000000000000000000000000000000604482015290519081900360640190fd5b5050600354600160a060020a031690565b60075490565b6008546040805160e560020a62461bcd02815260206004820152601a60248201526000805160206119d6833981519152604482015290519081900360640190fd5b6007546040805160e560020a62461bcd02815260206004820152601a60248201526000805160206119d6833981519152604482015290519081900360640190fd5b600354600160a060020a0316801561159a576040805160e560020a62461bcd02815260206004820152601160248201526000805160206119b6833981519152604482015290519081900360640190fd5b600554604080517fc3c5a547000000000000000000000000000000000000000000000000000000008152600160a060020a03808616600483015291518593929092169163c3c5a54791602480820192602092909190829003018186803b15801561160357600080fd5b505afa158015611617573d6000803e3d6000fd5b505050506040513d602081101561162d57600080fd5b50511515611685576040805160e560020a62461bcd02815260206004820152600d60248201527f4163636573732044656e69656400000000000000000000000000000000000000604482015290519081900360640190fd5b50506003805473ffffffffffffffffffffffffffffffffffffffff1916600160a060020a0392909216919091179055565b606f5481908110611711576040805160e560020a62461bcd02815260206004820152601b60248201527f46756e647320657863656564656420726571756972656d656e74200000000000604482015290519081900360640190fd5b60705460ff16151560011461175e576040805160e560020a62461bcd0281526020600482015260146024820152600080516020611996833981519152604482015290519081900360640190fd5b60705460ff1615156001146117ab576040805160e560020a62461bcd0281526020600482015260146024820152600080516020611996833981519152604482015290519081900360640190fd5b600554604080517fc3c5a547000000000000000000000000000000000000000000000000000000008152600160a060020a03808716600483015291518693929092169163c3c5a54791602480820192602092909190829003018186803b15801561181457600080fd5b505afa158015611828573d6000803e3d6000fd5b505050506040513d602081101561183e57600080fd5b50511515611896576040805160e560020a62461bcd02815260206004820152600d60248201527f4163636573732044656e69656400000000000000000000000000000000000000604482015290519081900360640190fd5b60068054600181019091557ff652222313e28459528d920b65115c16c04f3efc82aaedc97be59f3f377c0d3f01805473ffffffffffffffffffffffffffffffffffffffff1916600160a060020a0386169081179091556000908152600460205260409020839055606f80548490039055611910848461077a565b50505050565b611923600b826064611947565b5050565b610c80604051908101604052806064906020820280388339509192915050565b8260648101928215611975579160200282015b8281111561197557825182559160200191906001019061195a565b506107679261075f9250905b80821115610767576000815560010161198156fe53656c6c6572206861736e27742061677265656400000000000000000000000056616c756520616c72656164792073657400000000000000000000000000000056616c75652068617320616c7265616479206265656e2073657400000000000056616c7565206e6f742073657400000000000000000000000000000000000000a165627a7a7230582019ee1ee1f8b16ae6902e20fa46d78901dfad8045250fdb99907e5dafe734bef10029a165627a7a72305820cb82d88f55c7ce468a81b00db74f819c23b7024253283f3d6ea0a8cd30016f7d0029",
  "source": "pragma solidity >=0.4.21 <0.7.0;\n\nimport \"./SCFContracts.sol\";\n\ncontract Records {\n    mapping(bytes32 => SFCContracts) records;\n    Token private token;\n    Registerations private registerations;\n\n    constructor() public {}\n\n    modifier checkUser(address _address) {\n        require(registerations.isRegistered(_address), \"Access Denied\");\n        _;\n    }\n\n    function register(address _address) public {\n        registerations.register(_address);\n    }\n\n    function createContract(bytes32 _id) public {\n        records[_id] = (new SFCContracts(_id));\n\n    }\n\n    function setInitial(\n        bytes32 _id,\n        bytes32 _dateDelivery,\n        bytes32 _paymentDate,\n        bytes32[100] memory _msg,\n        uint256 _orderAmt\n    ) public {\n        records[_id].setDeliveryDate(_dateDelivery);\n        records[_id].setPaymentDate(_paymentDate);\n        records[_id].setOrderDetails(_msg);\n        records[_id].setOrderAmt(_orderAmt);\n\n    }\n\n    function getInitial(bytes32 _id)\n        public\n        view\n        returns (bytes32, bytes32, bytes32[100] memory, uint256)\n    {\n        return (\n            records[_id].getDeliveryDate(),\n            records[_id].getPaymentDate(),\n            records[_id].getOrderDetails(),\n            records[_id].getOrderAmt()\n        );\n\n    }\n\n    function setSellerFinal(\n        bytes32 _id,\n        bool _sellerApproval,\n        uint256 _workingCapital,\n        bytes32 _workingCapitalDeadline\n    ) public {\n        records[_id].setApprovalSeller(_sellerApproval);\n        records[_id].setWorkingCapital(_workingCapital);\n        records[_id].setWorkingCapitalDeadline(_workingCapitalDeadline);\n\n    }\n\n    function getSellerFinal(bytes32 _id)\n        public\n        view\n        returns (bool, uint256, bytes32)\n    {\n        return (\n            records[_id].getApprovalSeller(),\n            records[_id].getWorkingCapital(),\n            records[_id].getWorkingCapitalDeadline()\n        );\n    }\n\n    function setBuyerFinal(\n        bytes32 _id,\n        uint256 _backingPercent,\n        bool _buyerApproval,\n        uint256 _interestRate\n    ) public {\n        records[_id].setBackingPercent(_backingPercent);\n        records[_id].setApprovalBuyer(_buyerApproval);\n        records[_id].setInterestRate(_interestRate);\n    }\n\n    function getBuyerFinal(bytes32 _id)\n        public\n        view\n        returns (uint256, bool, uint256)\n    {\n        return (\n            records[_id].getBackingPercent(),\n            records[_id].getBuyerApproval(),\n            records[_id].getInterestRate()\n        );\n    }\n\n    function addInvestor(bytes32 _id, address _investor, uint256 _investment)\n        public\n    {\n        records[_id].addInvestor(_investor, _investment);\n    }\n\n    function getInvestors(bytes32 _id) public view returns (address[] memory) {\n        return records[_id].getInvestors();\n    }\n\n    function setOrderCompletion(bytes32 _id, bool _orderCompletion) public {\n        records[_id].setOrderCompletion(_orderCompletion);\n        records[_id].finalPayment();\n\n    }\n\n    function cashOut(address _from, uint256 tokens) public {\n        token.cashOut(_from, tokens);\n    }\n\n    function transfer(address _to, uint256 tokens) public {\n        token.transfer(_to, tokens);\n    }\n\n    function getBalance(address _user) public view returns (uint256) {\n        return token.balanceOf(_user);\n    }\n\n}\n",
  "sourcePath": "/home/mgeo/Desktop/SCF-Blockchain/contracts/SCF/Records.sol",
  "compiler": {
    "name": "solc",
    "version": "0.5.0+commit.1d4f565a.Emscripten.clang"
  },
  "schemaVersion": "3.0.1",
  "updatedAt": "2020-05-27T17:38:51.283Z",
  "devdoc": {
    "methods": {}
  },
  "userdoc": {
    "methods": {}
  }
}