{
  "contractName": "SFCContracts",
  "abi": [
    {
      "inputs": [
        {
          "name": "_id",
          "type": "bytes32"
        }
      ],
      "payable": false,
      "stateMutability": "nonpayable",
      "type": "constructor"
    },
    {
      "constant": false,
      "inputs": [
        {
          "name": "_interestRate",
          "type": "uint256"
        }
      ],
      "name": "setInterestRate",
      "outputs": [],
      "payable": false,
      "stateMutability": "nonpayable",
      "type": "function"
    },
    {
      "constant": false,
      "inputs": [
        {
          "name": "_deliveryDate",
          "type": "bytes32"
        }
      ],
      "name": "setDeliveryDate",
      "outputs": [],
      "payable": false,
      "stateMutability": "nonpayable",
      "type": "function"
    },
    {
      "constant": false,
      "inputs": [
        {
          "name": "_backingPercent",
          "type": "uint256"
        }
      ],
      "name": "setBackingPercent",
      "outputs": [],
      "payable": false,
      "stateMutability": "nonpayable",
      "type": "function"
    },
    {
      "constant": false,
      "inputs": [
        {
          "name": "_orderAmt",
          "type": "uint256"
        }
      ],
      "name": "setOrderAmt",
      "outputs": [],
      "payable": false,
      "stateMutability": "nonpayable",
      "type": "function"
    },
    {
      "constant": false,
      "inputs": [
        {
          "name": "_msg",
          "type": "bytes32[100]"
        }
      ],
      "name": "setOrderDetails",
      "outputs": [],
      "payable": false,
      "stateMutability": "nonpayable",
      "type": "function"
    },
    {
      "constant": false,
      "inputs": [
        {
          "name": "_workingCapital",
          "type": "uint256"
        }
      ],
      "name": "setWorkingCapital",
      "outputs": [],
      "payable": false,
      "stateMutability": "nonpayable",
      "type": "function"
    },
    {
      "constant": false,
      "inputs": [
        {
          "name": "_paymentDate",
          "type": "bytes32"
        }
      ],
      "name": "setPaymentDate",
      "outputs": [],
      "payable": false,
      "stateMutability": "nonpayable",
      "type": "function"
    },
    {
      "constant": false,
      "inputs": [
        {
          "name": "_orderCompletion",
          "type": "bool"
        }
      ],
      "name": "setOrderCompletion",
      "outputs": [],
      "payable": false,
      "stateMutability": "nonpayable",
      "type": "function"
    },
    {
      "constant": false,
      "inputs": [
        {
          "name": "_deadline",
          "type": "bytes32"
        }
      ],
      "name": "setWorkingCapitalDeadline",
      "outputs": [],
      "payable": false,
      "stateMutability": "nonpayable",
      "type": "function"
    },
    {
      "constant": true,
      "inputs": [],
      "name": "getWorkingCapitalDeadline",
      "outputs": [
        {
          "name": "",
          "type": "bytes32"
        }
      ],
      "payable": false,
      "stateMutability": "view",
      "type": "function"
    },
    {
      "constant": false,
      "inputs": [
        {
          "name": "_buyer",
          "type": "address"
        }
      ],
      "name": "setBuyer",
      "outputs": [],
      "payable": false,
      "stateMutability": "nonpayable",
      "type": "function"
    },
    {
      "constant": true,
      "inputs": [],
      "name": "getBuyer",
      "outputs": [
        {
          "name": "",
          "type": "address"
        }
      ],
      "payable": false,
      "stateMutability": "view",
      "type": "function"
    },
    {
      "constant": true,
      "inputs": [],
      "name": "getSeller",
      "outputs": [
        {
          "name": "",
          "type": "address"
        }
      ],
      "payable": false,
      "stateMutability": "view",
      "type": "function"
    },
    {
      "constant": true,
      "inputs": [],
      "name": "getInvestors",
      "outputs": [
        {
          "name": "",
          "type": "address[]"
        }
      ],
      "payable": false,
      "stateMutability": "view",
      "type": "function"
    },
    {
      "constant": true,
      "inputs": [],
      "name": "getDeliveryDate",
      "outputs": [
        {
          "name": "",
          "type": "bytes32"
        }
      ],
      "payable": false,
      "stateMutability": "view",
      "type": "function"
    },
    {
      "constant": true,
      "inputs": [],
      "name": "getPaymentDate",
      "outputs": [
        {
          "name": "",
          "type": "bytes32"
        }
      ],
      "payable": false,
      "stateMutability": "view",
      "type": "function"
    },
    {
      "constant": true,
      "inputs": [],
      "name": "getOrderAmt",
      "outputs": [
        {
          "name": "",
          "type": "uint256"
        }
      ],
      "payable": false,
      "stateMutability": "view",
      "type": "function"
    },
    {
      "constant": true,
      "inputs": [],
      "name": "getOrderDetails",
      "outputs": [
        {
          "name": "",
          "type": "bytes32[100]"
        }
      ],
      "payable": false,
      "stateMutability": "view",
      "type": "function"
    },
    {
      "constant": true,
      "inputs": [],
      "name": "getWorkingCapital",
      "outputs": [
        {
          "name": "",
          "type": "uint256"
        }
      ],
      "payable": false,
      "stateMutability": "view",
      "type": "function"
    },
    {
      "constant": true,
      "inputs": [],
      "name": "getApprovalSeller",
      "outputs": [
        {
          "name": "",
          "type": "bool"
        }
      ],
      "payable": false,
      "stateMutability": "view",
      "type": "function"
    },
    {
      "constant": true,
      "inputs": [],
      "name": "getInterestRate",
      "outputs": [
        {
          "name": "",
          "type": "uint256"
        }
      ],
      "payable": false,
      "stateMutability": "view",
      "type": "function"
    },
    {
      "constant": true,
      "inputs": [],
      "name": "getBackingPercent",
      "outputs": [
        {
          "name": "",
          "type": "uint256"
        }
      ],
      "payable": false,
      "stateMutability": "view",
      "type": "function"
    },
    {
      "constant": true,
      "inputs": [],
      "name": "getBuyerApproval",
      "outputs": [
        {
          "name": "",
          "type": "bool"
        }
      ],
      "payable": false,
      "stateMutability": "view",
      "type": "function"
    },
    {
      "constant": false,
      "inputs": [
        {
          "name": "_seller",
          "type": "address"
        }
      ],
      "name": "setSeller",
      "outputs": [],
      "payable": false,
      "stateMutability": "nonpayable",
      "type": "function"
    },
    {
      "constant": false,
      "inputs": [
        {
          "name": "_investor",
          "type": "address"
        },
        {
          "name": "_investment",
          "type": "uint256"
        }
      ],
      "name": "addInvestor",
      "outputs": [],
      "payable": false,
      "stateMutability": "nonpayable",
      "type": "function"
    },
    {
      "constant": true,
      "inputs": [
        {
          "name": "_investor",
          "type": "address"
        }
      ],
      "name": "getInvestment",
      "outputs": [
        {
          "name": "",
          "type": "uint256"
        }
      ],
      "payable": false,
      "stateMutability": "view",
      "type": "function"
    },
    {
      "constant": false,
      "inputs": [
        {
          "name": "_approvalSeller",
          "type": "bool"
        }
      ],
      "name": "setApprovalSeller",
      "outputs": [],
      "payable": false,
      "stateMutability": "nonpayable",
      "type": "function"
    },
    {
      "constant": false,
      "inputs": [
        {
          "name": "_approvalBuyer",
          "type": "bool"
        }
      ],
      "name": "setApprovalBuyer",
      "outputs": [],
      "payable": false,
      "stateMutability": "nonpayable",
      "type": "function"
    },
    {
      "constant": false,
      "inputs": [
        {
          "name": "_investor",
          "type": "address"
        },
        {
          "name": "_investment",
          "type": "uint256"
        }
      ],
      "name": "paymentToSeller",
      "outputs": [],
      "payable": false,
      "stateMutability": "nonpayable",
      "type": "function"
    },
    {
      "constant": false,
      "inputs": [],
      "name": "finalPayment",
      "outputs": [],
      "payable": false,
      "stateMutability": "nonpayable",
      "type": "function"
    }
  ],
  "bytecode": "0x608060405234801561001057600080fd5b50604051602080611a858339810180604052602081101561003057600080fd5b5051600155611a41806100446000396000f3fe60806040526004361061017f5763ffffffff7c010000000000000000000000000000000000000000000000000000000060003504166303126c9a8114610184578063146b58df146101b25780631ac84b22146101f75780632e19ce5b146102205780633fad16a6146102355780635257b5661461024a5780635424547d1461025f5780635d0f018f146102985780635f1f6f55146102ad5780635f84f302146102d7578063603daf9a1461030157806363e78e9b146103325780636b45b3181461035c5780637011350114610386578063900089ec146103b0578063934c85d7146103dc578063a3f09ad6146103f1578063a62a4c8514610424578063b071084114610439578063b2f5a54c14610465578063b4233e9f146104ca578063cb8d3ea814610518578063da3857561461052d578063dbd0e1b614610542578063dfab317a14610557578063e261c35e1461056c578063e86ea0e814610596578063e99d2866146105c0578063ec20b457146105f3578063f143fb8f1461062c575b600080fd5b34801561019057600080fd5b506101b0600480360360208110156101a757600080fd5b5035151561068d565b005b3480156101be57600080fd5b506101e5600480360360208110156101d557600080fd5b5035600160a060020a031661073d565b60408051918252519081900360200190f35b34801561020357600080fd5b5061020c610758565b604080519115158252519081900360200190f35b34801561022c57600080fd5b506101e5610762565b34801561024157600080fd5b5061020c61076b565b34801561025657600080fd5b506101e5610774565b34801561026b57600080fd5b506101b06004803603604081101561028257600080fd5b50600160a060020a03813516906020013561077a565b3480156102a457600080fd5b506101e5610953565b3480156102b957600080fd5b506101b0600480360360208110156102d057600080fd5b5035610959565b3480156102e357600080fd5b506101b0600480360360208110156102fa57600080fd5b50356109e8565b34801561030d57600080fd5b50610316610a82565b60408051600160a060020a039092168252519081900360200190f35b34801561033e57600080fd5b506101b06004803603602081101561035557600080fd5b5035610af9565b34801561036857600080fd5b506101b06004803603602081101561037f57600080fd5b5035610b93565b34801561039257600080fd5b506101b0600480360360208110156103a957600080fd5b5035610c34565b3480156103bc57600080fd5b506101b0600480360360208110156103d357600080fd5b50351515610c81565b3480156103e857600080fd5b506101e5610d2c565b3480156103fd57600080fd5b506101b06004803603602081101561041457600080fd5b5035600160a060020a0316610d32565b34801561043057600080fd5b506101e5610e9e565b34801561044557600080fd5b506101b06004803603602081101561045c57600080fd5b50351515610ea4565b34801561047157600080fd5b5061047a61103b565b60408051602080825283518183015283519192839290830191858101910280838360005b838110156104b657818101518382015260200161049e565b505050509050019250505060405180910390f35b3480156104d657600080fd5b506104df611191565b6040518082610c8080838360005b838110156105055781810151838201526020016104ed565b5050505090500191505060405180910390f35b34801561052457600080fd5b506101e56111cd565b34801561053957600080fd5b506101b06111d3565b34801561054e57600080fd5b5061031661144b565b34801561056357600080fd5b506101e56114c2565b34801561057857600080fd5b506101b06004803603602081101561058f57600080fd5b50356114c8565b3480156105a257600080fd5b506101b0600480360360208110156105b957600080fd5b5035611509565b3480156105cc57600080fd5b506101b0600480360360208110156105e357600080fd5b5035600160a060020a031661154a565b3480156105ff57600080fd5b506101b06004803603604081101561061657600080fd5b50600160a060020a0381351690602001356116b6565b34801561063857600080fd5b506101b06004803603610c8081101561065057600080fd5b8101908080610c80019060648060200260405190810160405280929190826064602002808284376000920191909152509194506119169350505050565b60075460085460705460ff1680156106dd576040805160e560020a62461bcd02815260206004820152601160248201526000805160206119b6833981519152604482015290519081900360640190fd5b600a54801515610725576040805160e560020a62461bcd02815260206004820152600d60248201526000805160206119f6833981519152604482015290519081900360640190fd5b50506070805460ff1916931515939093179092555050565b600160a060020a031660009081526004602052604090205490565b60705460ff165b90565b600854805b5090565b60735460ff1690565b60715490565b60705460ff1615156001146107c7576040805160e560020a62461bcd0281526020600482015260146024820152600080516020611996833981519152604482015290519081900360640190fd5b60705460ff161515600114610814576040805160e560020a62461bcd0281526020600482015260146024820152600080516020611996833981519152604482015290519081900360640190fd5b60725480151561085c576040805160e560020a62461bcd02815260206004820152600d60248201526000805160206119f6833981519152604482015290519081900360640190fd5b6071548015156108a4576040805160e560020a62461bcd02815260206004820152600d60248201526000805160206119f6833981519152604482015290519081900360640190fd5b60008054600354604080517f23b872dd000000000000000000000000000000000000000000000000000000008152600160a060020a038981166004830152928316602482015260448101889052905191909216926323b872dd92606480820193602093909283900390910190829087803b15801561092157600080fd5b505af1158015610935573d6000803e3d6000fd5b505050506040513d602081101561094b57600080fd5b505050505050565b60095490565b600754600854600a548015156109a7576040805160e560020a62461bcd02815260206004820152600d60248201526000805160206119f6833981519152604482015290519081900360640190fd5b6009546040805160e560020a62461bcd02815260206004820152601a60248201526000805160206119d6833981519152604482015290519081900360640190fd5b6071548015610a2f576040805160e560020a62461bcd02815260206004820152601a60248201526000805160206119d6833981519152604482015290519081900360640190fd5b60705460ff161515600114610a7c576040805160e560020a62461bcd0281526020600482015260146024820152600080516020611996833981519152604482015290519081900360640190fd5b50607155565b600254600090600160a060020a0316801515610ae8576040805160e560020a62461bcd02815260206004820152601160248201527f56616c7565206e6f742079657420736574000000000000000000000000000000604482015290519081900360640190fd5b5050600254600160a060020a031690565b6072548015610b40576040805160e560020a62461bcd02815260206004820152601a60248201526000805160206119d6833981519152604482015290519081900360640190fd5b60705460ff161515600114610b8d576040805160e560020a62461bcd0281526020600482015260146024820152600080516020611996833981519152604482015290519081900360640190fd5b50607255565b600754600854600a54801515610be1576040805160e560020a62461bcd02815260206004820152600d60248201526000805160206119f6833981519152604482015290519081900360640190fd5b606f548015610c28576040805160e560020a62461bcd02815260206004820152601a60248201526000805160206119d6833981519152604482015290519081900360640190fd5b505050606f9190915550565b600a548015610c7b576040805160e560020a62461bcd02815260206004820152601a60248201526000805160206119d6833981519152604482015290519081900360640190fd5b50600a55565b60705460ff161515600114610cce576040805160e560020a62461bcd0281526020600482015260146024820152600080516020611996833981519152604482015290519081900360640190fd5b60735460ff168015610d18576040805160e560020a62461bcd02815260206004820152601160248201526000805160206119b6833981519152604482015290519081900360640190fd5b506073805460ff1916911515919091179055565b606f5490565b600254600160a060020a03168015610d82576040805160e560020a62461bcd02815260206004820152601160248201526000805160206119b6833981519152604482015290519081900360640190fd5b600554604080517fc3c5a547000000000000000000000000000000000000000000000000000000008152600160a060020a03808616600483015291518593929092169163c3c5a54791602480820192602092909190829003018186803b158015610deb57600080fd5b505afa158015610dff573d6000803e3d6000fd5b505050506040513d6020811015610e1557600080fd5b50511515610e6d576040805160e560020a62461bcd02815260206004820152600d60248201527f4163636573732044656e69656400000000000000000000000000000000000000604482015290519081900360640190fd5b50506002805473ffffffffffffffffffffffffffffffffffffffff1916600160a060020a0392909216919091179055565b600a5490565b60705460ff161515600114610ef1576040805160e560020a62461bcd0281526020600482015260146024820152600080516020611996833981519152604482015290519081900360640190fd5b60705460ff161515600114610f3e576040805160e560020a62461bcd0281526020600482015260146024820152600080516020611996833981519152604482015290519081900360640190fd5b607254801515610f86576040805160e560020a62461bcd02815260206004820152600d60248201526000805160206119f6833981519152604482015290519081900360640190fd5b607154801515610fce576040805160e560020a62461bcd02815260206004820152600d60248201526000805160206119f6833981519152604482015290519081900360640190fd5b607354610100900460ff16801561101d576040805160e560020a62461bcd02815260206004820152601160248201526000805160206119b6833981519152604482015290519081900360640190fd5b5050607380549215156101000261ff00199093169290921790915550565b6006546060901515611097576040805160e560020a62461bcd02815260206004820152601760248201527f546865726520617265206e6f20696e76657374726f7273000000000000000000604482015290519081900360640190fd5b60705460ff1615156001146110e4576040805160e560020a62461bcd0281526020600482015260146024820152600080516020611996833981519152604482015290519081900360640190fd5b60705460ff161515600114611131576040805160e560020a62461bcd0281526020600482015260146024820152600080516020611996833981519152604482015290519081900360640190fd5b600680548060200260200160405190810160405280929190818152602001828054801561118757602002820191906000526020600020905b8154600160a060020a03168152600190910190602001808311611169575b5050505050905090565b611199611927565b60408051610c8081019182905290600b9060649082845b8154815260200190600101908083116111b0575050505050905090565b60725490565b607354610100900460ff16600181151514611238576040805160e560020a62461bcd02815260206004820152601960248201527f4f726465722068617320746f20626520636f6d706c6574656400000000000000604482015290519081900360640190fd5b60005b600654811015611398576004600060068381548110151561125857fe5b6000918252602080832090910154600160a060020a039081168452908301939093526040909101812054600a80549190910390555460025460068054928416936323b872dd93921691859081106112ab57fe5b600091825260208220015460068054600160a060020a0390921692600492909190889081106112d657fe5b6000918252602080832090910154600160a060020a03908116845283820194909452604092830182205483517c010000000000000000000000000000000000000000000000000000000063ffffffff8a160281529685166004880152949093166024860152604485019390935251606480850194929391928390030190829087803b15801561136457600080fd5b505af1158015611378573d6000803e3d6000fd5b505050506040513d602081101561138e57600080fd5b505060010161123b565b5060008054600254600354600a54604080517f23b872dd000000000000000000000000000000000000000000000000000000008152600160a060020a039485166004820152928416602484015260448301919091525191909216926323b872dd92606480820193602093909283900390910190829087803b15801561141c57600080fd5b505af1158015611430573d6000803e3d6000fd5b505050506040513d602081101561144657600080fd5b505050565b600354600090600160a060020a03168015156114b1576040805160e560020a62461bcd02815260206004820152601160248201527f56616c7565206e6f742079657420736574000000000000000000000000000000604482015290519081900360640190fd5b5050600354600160a060020a031690565b60075490565b6008546040805160e560020a62461bcd02815260206004820152601a60248201526000805160206119d6833981519152604482015290519081900360640190fd5b6007546040805160e560020a62461bcd02815260206004820152601a60248201526000805160206119d6833981519152604482015290519081900360640190fd5b600354600160a060020a0316801561159a576040805160e560020a62461bcd02815260206004820152601160248201526000805160206119b6833981519152604482015290519081900360640190fd5b600554604080517fc3c5a547000000000000000000000000000000000000000000000000000000008152600160a060020a03808616600483015291518593929092169163c3c5a54791602480820192602092909190829003018186803b15801561160357600080fd5b505afa158015611617573d6000803e3d6000fd5b505050506040513d602081101561162d57600080fd5b50511515611685576040805160e560020a62461bcd02815260206004820152600d60248201527f4163636573732044656e69656400000000000000000000000000000000000000604482015290519081900360640190fd5b50506003805473ffffffffffffffffffffffffffffffffffffffff1916600160a060020a0392909216919091179055565b606f5481908110611711576040805160e560020a62461bcd02815260206004820152601b60248201527f46756e647320657863656564656420726571756972656d656e74200000000000604482015290519081900360640190fd5b60705460ff16151560011461175e576040805160e560020a62461bcd0281526020600482015260146024820152600080516020611996833981519152604482015290519081900360640190fd5b60705460ff1615156001146117ab576040805160e560020a62461bcd0281526020600482015260146024820152600080516020611996833981519152604482015290519081900360640190fd5b600554604080517fc3c5a547000000000000000000000000000000000000000000000000000000008152600160a060020a03808716600483015291518693929092169163c3c5a54791602480820192602092909190829003018186803b15801561181457600080fd5b505afa158015611828573d6000803e3d6000fd5b505050506040513d602081101561183e57600080fd5b50511515611896576040805160e560020a62461bcd02815260206004820152600d60248201527f4163636573732044656e69656400000000000000000000000000000000000000604482015290519081900360640190fd5b60068054600181019091557ff652222313e28459528d920b65115c16c04f3efc82aaedc97be59f3f377c0d3f01805473ffffffffffffffffffffffffffffffffffffffff1916600160a060020a0386169081179091556000908152600460205260409020839055606f80548490039055611910848461077a565b50505050565b611923600b826064611947565b5050565b610c80604051908101604052806064906020820280388339509192915050565b8260648101928215611975579160200282015b8281111561197557825182559160200191906001019061195a565b506107679261075f9250905b80821115610767576000815560010161198156fe53656c6c6572206861736e27742061677265656400000000000000000000000056616c756520616c72656164792073657400000000000000000000000000000056616c75652068617320616c7265616479206265656e2073657400000000000056616c7565206e6f742073657400000000000000000000000000000000000000a165627a7a7230582019ee1ee1f8b16ae6902e20fa46d78901dfad8045250fdb99907e5dafe734bef10029",
  "source": "pragma solidity >=0.4.21 <0.7.0;\n\nimport \"./Registerations.sol\";\nimport \"../token/Token.sol\";\n\ncontract SFCContracts {\n    Token private token;\n\n    bytes32 id;\n    address buyer;\n    address seller;\n    mapping(address => uint256) investments;\n    Registerations private registerations;\n\n    address[] investors;\n\n    bytes32 deliveryDate;\n    bytes32 paymentDate;\n    bytes32 workingCapitalDeadline;\n    uint256 orderAmount;\n    bytes32[100] orderDetails;\n\n    uint256 workingCapital;\n    bool approvalSeller;\n\n    uint256 interestRate;\n    uint256 backingPercent;\n\n    bool approvalBuyer;\n    bool orderCompletion;\n\n    constructor(bytes32 _id) public {\n        id = _id;\n\n    }\n\n    modifier checkUser(address _address) {\n        require(registerations.isRegistered(_address), \"Access Denied\");\n        _;\n    }\n    modifier onlyOnNum(uint256 num) {\n        require(num != 0, \"Value not set\");\n        _;\n    }\n\n    modifier onlyOnInvestors {\n        require(investors.length != 0, \"There are no investrors\");\n        _;\n    }\n    modifier onSellerTrue() {\n        require(approvalSeller == true, \"Seller hasn't agreed\");\n\n        _;\n    }\n    modifier onBuyerTrue() {\n        require(approvalSeller == true, \"Seller hasn't agreed\");\n\n        _;\n    }\n    modifier onlyOnSetAddress(address check) {\n        require(check != address(0), \"Value not yet set\");\n        _;\n    }\n\n    modifier onlyOnString(bytes32 str) {\n        require(str.length != 0, \"There are no investrors\");\n        _;\n    }\n\n    modifier checkWorkingCapitalDeadline() {\n        require(\n            workingCapitalDeadline.length != 0,\n            \"Working Capital Deadline not set\"\n        );\n        _;\n    }\n\n    modifier onNumNull(uint256 num) {\n        require(num == 0, \"Value has already been set\");\n        _;\n    }\n\n    modifier onStringNull(bytes32 str) {\n        require(str.length == 0, \"Value has already been set\");\n        _;\n    }\n    modifier onUserNull(address user) {\n        require(user == address(0), \"Value already set\");\n        _;\n    }\n\n    modifier onBoolNull(bool val) {\n        require(val == false, \"Value already set\");\n        _;\n    }\n\n    modifier checkOrderCompletion(bool _orderCompletion) {\n        require(_orderCompletion == true, \"Order has to be completed\");\n        _;\n    }\n\n    ////////////////////////////////////////////\n    function setInterestRate(uint256 _interestRate)\n        public\n        onNumNull(interestRate)\n        onSellerTrue\n    {\n        interestRate = _interestRate;\n    }\n\n    function setDeliveryDate(bytes32 _deliveryDate)\n        public\n        onStringNull(deliveryDate)\n    {\n        deliveryDate = _deliveryDate;\n    }\n    function setBackingPercent(uint256 _backingPercent)\n        public\n        onNumNull(backingPercent)\n        onSellerTrue\n    {\n        backingPercent = _backingPercent;\n    }\n\n    function setOrderAmt(uint256 _orderAmt) public onNumNull(orderAmount) {\n        orderAmount = _orderAmt;\n    }\n\n    /////////////to update\n\n    function setOrderDetails(bytes32[100] memory _msg) public {\n        orderDetails = _msg;\n    }\n\n    function setWorkingCapital(uint256 _workingCapital)\n        public\n        onlyOnString(deliveryDate)\n        onlyOnString(paymentDate)\n        onlyOnOrderDetails\n        onlyOnNum(orderAmount)\n        onNumNull(workingCapital)\n    {\n        workingCapital = _workingCapital;\n    }\n\n    function setPaymentDate(bytes32 _paymentDate)\n        public\n        onStringNull(paymentDate)\n    {\n        paymentDate = _paymentDate;\n    }\n\n    function setOrderCompletion(bool _orderCompletion)\n        public\n        onSellerTrue\n        onBuyerTrue\n        onlyOnOrderDetails\n        checkWorkingCapitalDeadline\n        onlyOnNum(backingPercent)\n        onlyOnNum(interestRate)\n        onBoolNull(orderCompletion)\n    {\n        orderCompletion = _orderCompletion;\n    }\n\n    ///////////////////////////////////////////////////\n    function setWorkingCapitalDeadline(bytes32 _deadline)\n        public\n        onlyOnString(deliveryDate)\n        onlyOnString(paymentDate)\n        onlyOnOrderDetails\n        onlyOnNum(orderAmount)\n        onStringNull(workingCapitalDeadline)\n    {\n        workingCapitalDeadline = _deadline;\n    }\n    function getWorkingCapitalDeadline()\n        public\n        view\n        checkWorkingCapitalDeadline\n        returns (bytes32)\n    {\n        return workingCapitalDeadline;\n    }\n    function setBuyer(address _buyer)\n        public\n        onUserNull(buyer)\n        checkUser(_buyer)\n    {\n        buyer = _buyer;\n    }\n\n    function getBuyer() public view onlyOnSetAddress(buyer) returns (address) {\n        return buyer;\n    }\n    function getSeller()\n        public\n        view\n        onlyOnSetAddress(seller)\n        returns (address)\n    {\n        return seller;\n    }\n\n    function getInvestors()\n        public\n        view\n        onlyOnInvestors\n        onBuyerTrue\n        onSellerTrue\n        returns (address[] memory)\n    {\n        return investors;\n    }\n\n    function getDeliveryDate()\n        public\n        view\n        onlyOnString(deliveryDate)\n        returns (bytes32)\n    {\n        return deliveryDate;\n    }\n\n    function getPaymentDate()\n        public\n        view\n        onlyOnString(paymentDate)\n        returns (bytes32)\n    {\n        return paymentDate;\n    }\n\n    function getOrderAmt() public view returns (uint256) {\n        return orderAmount;\n    }\n    modifier onlyOnOrderDetails() {\n        require(orderDetails.length != 0, \"Order Details not set\");\n        _;\n    }\n    function getOrderDetails()\n        public\n        view\n        onlyOnOrderDetails\n        returns (bytes32[100] memory)\n    {\n        return orderDetails;\n    }\n    function getWorkingCapital() public view returns (uint256) {\n        return workingCapital;\n    }\n    function getApprovalSeller() public view returns (bool) {\n        return approvalSeller;\n    }\n    function getInterestRate() public view returns (uint256) {\n        return interestRate;\n    }\n    function getBackingPercent() public view returns (uint256) {\n        return backingPercent;\n    }\n\n    function getBuyerApproval() public view returns (bool) {\n        return approvalBuyer;\n    }\n\n    function setSeller(address _seller)\n        public\n        onUserNull(seller)\n        checkUser(_seller)\n    {\n        seller = _seller;\n    }\n    modifier investmentRequirement(uint256 _investment) {\n        require(_investment < workingCapital, \"Funds exceeded requirement \");\n        _;\n    }\n\n    function addInvestor(address _investor, uint256 _investment)\n        public\n        investmentRequirement(_investment)\n        onBuyerTrue\n        onSellerTrue\n        checkUser(_investor)\n    {\n        investors.push(_investor);\n        investments[_investor] = _investment;\n\n        workingCapital -= _investment;\n        paymentToSeller(_investor, _investment);\n\n    }\n\n    function getInvestment(address _investor) public view returns (uint256) {\n        return investments[_investor];\n    }\n\n    function setApprovalSeller(bool _approvalSeller)\n        public\n        onlyOnString(deliveryDate)\n        onlyOnString(paymentDate)\n        onlyOnOrderDetails\n        onBoolNull(approvalSeller)\n        onlyOnNum(orderAmount)\n    {\n        approvalSeller = _approvalSeller;\n    }\n\n    function setApprovalBuyer(bool _approvalBuyer)\n        public\n        onSellerTrue\n        checkWorkingCapitalDeadline\n        onBoolNull(approvalBuyer)\n    {\n        approvalBuyer = _approvalBuyer;\n    }\n\n    ////////////////////////////////////// ESCROW\n\n    // function transferFrom(address _from, address _to, uint256 tokens) public{\n    //     token.transferFrom(_from, _to, tokens);\n    // }\n\n    function paymentToSeller(address _investor, uint256 _investment)\n        public\n        onSellerTrue\n        onBuyerTrue\n        onlyOnOrderDetails\n        checkWorkingCapitalDeadline\n        onlyOnNum(backingPercent)\n        onlyOnNum(interestRate)\n    {\n        token.transferFrom(_investor, seller, _investment);\n    }\n\n    function finalPayment() public checkOrderCompletion(orderCompletion) {\n        for (uint256 i = 0; i < investors.length; i++) {\n            orderAmount -= investments[investors[i]];\n            token.transferFrom(buyer, investors[i], investments[investors[i]]);\n        }\n\n        token.transferFrom(buyer, seller, orderAmount);\n\n    }\n\n    // trasnferfrom\n\n}\n\n\n",
  "sourcePath": "/home/mgeo/Desktop/SCF-Blockchain/contracts/SCF/SCFContracts.sol",
  "compiler": {
    "name": "solc",
    "version": "0.5.0+commit.1d4f565a.Emscripten.clang"
  },
  "schemaVersion": "3.0.1",
  "updatedAt": "2020-05-27T17:32:36.340Z",
  "devdoc": {
    "methods": {}
  },
  "userdoc": {
    "methods": {
      "paymentToSeller(address,uint256)": {
        "notice": "/////////////////////////////////// ESCROW"
      },
      "setInterestRate(uint256)": {
        "notice": "/////////////////////////////////////////"
      },
      "setOrderDetails(bytes32[100])": {
        "notice": "//////////to update"
      },
      "setWorkingCapitalDeadline(bytes32)": {
        "notice": "////////////////////////////////////////////////"
      }
    }
  }
}