{
  "contractName": "Token",
  "abi": [
    {
      "constant": true,
      "inputs": [],
      "name": "name",
      "outputs": [
        {
          "name": "",
          "type": "string"
        }
      ],
      "payable": false,
      "stateMutability": "view",
      "type": "function",
      "signature": "0x06fdde03"
    },
    {
      "constant": true,
      "inputs": [],
      "name": "totalSupply",
      "outputs": [
        {
          "name": "",
          "type": "uint256"
        }
      ],
      "payable": false,
      "stateMutability": "view",
      "type": "function",
      "signature": "0x18160ddd"
    },
    {
      "constant": true,
      "inputs": [
        {
          "name": "",
          "type": "address"
        }
      ],
      "name": "balances",
      "outputs": [
        {
          "name": "",
          "type": "uint256"
        }
      ],
      "payable": false,
      "stateMutability": "view",
      "type": "function",
      "signature": "0x27e235e3"
    },
    {
      "constant": true,
      "inputs": [],
      "name": "decimals",
      "outputs": [
        {
          "name": "",
          "type": "uint8"
        }
      ],
      "payable": false,
      "stateMutability": "view",
      "type": "function",
      "signature": "0x313ce567"
    },
    {
      "constant": true,
      "inputs": [
        {
          "name": "",
          "type": "address"
        },
        {
          "name": "",
          "type": "address"
        }
      ],
      "name": "allowed",
      "outputs": [
        {
          "name": "",
          "type": "uint256"
        }
      ],
      "payable": false,
      "stateMutability": "view",
      "type": "function",
      "signature": "0x5c658165"
    },
    {
      "constant": true,
      "inputs": [],
      "name": "symbol",
      "outputs": [
        {
          "name": "",
          "type": "string"
        }
      ],
      "payable": false,
      "stateMutability": "view",
      "type": "function",
      "signature": "0x95d89b41"
    },
    {
      "inputs": [
        {
          "name": "_initialAmount",
          "type": "uint256"
        },
        {
          "name": "_tokenName",
          "type": "string"
        },
        {
          "name": "_decimalUnits",
          "type": "uint8"
        },
        {
          "name": "_tokenSymbol",
          "type": "string"
        }
      ],
      "payable": false,
      "stateMutability": "nonpayable",
      "type": "constructor",
      "signature": "constructor"
    },
    {
      "anonymous": false,
      "inputs": [
        {
          "indexed": true,
          "name": "_from",
          "type": "address"
        },
        {
          "indexed": true,
          "name": "_to",
          "type": "address"
        },
        {
          "indexed": false,
          "name": "_value",
          "type": "uint256"
        }
      ],
      "name": "Transfer",
      "type": "event",
      "signature": "0xddf252ad1be2c89b69c2b068fc378daa952ba7f163c4a11628f55a4df523b3ef"
    },
    {
      "anonymous": false,
      "inputs": [
        {
          "indexed": true,
          "name": "_owner",
          "type": "address"
        },
        {
          "indexed": true,
          "name": "_spender",
          "type": "address"
        },
        {
          "indexed": false,
          "name": "_value",
          "type": "uint256"
        }
      ],
      "name": "Approval",
      "type": "event",
      "signature": "0x8c5be1e5ebec7d5bd14f71427d1e84f3dd0314c0f7b2291e5b200ac8c7c3b925"
    },
    {
      "constant": false,
      "inputs": [
        {
          "name": "_to",
          "type": "address"
        },
        {
          "name": "_value",
          "type": "uint256"
        }
      ],
      "name": "transfer",
      "outputs": [
        {
          "name": "success",
          "type": "bool"
        }
      ],
      "payable": false,
      "stateMutability": "nonpayable",
      "type": "function",
      "signature": "0xa9059cbb"
    },
    {
      "constant": false,
      "inputs": [
        {
          "name": "_from",
          "type": "address"
        },
        {
          "name": "_value",
          "type": "uint256"
        }
      ],
      "name": "cashOut",
      "outputs": [
        {
          "name": "success",
          "type": "bool"
        }
      ],
      "payable": false,
      "stateMutability": "nonpayable",
      "type": "function",
      "signature": "0x22405443"
    },
    {
      "constant": false,
      "inputs": [
        {
          "name": "_from",
          "type": "address"
        },
        {
          "name": "_to",
          "type": "address"
        },
        {
          "name": "_value",
          "type": "uint256"
        }
      ],
      "name": "transferFrom",
      "outputs": [
        {
          "name": "success",
          "type": "bool"
        }
      ],
      "payable": false,
      "stateMutability": "nonpayable",
      "type": "function",
      "signature": "0x23b872dd"
    },
    {
      "constant": true,
      "inputs": [
        {
          "name": "_owner",
          "type": "address"
        }
      ],
      "name": "balanceOf",
      "outputs": [
        {
          "name": "balance",
          "type": "uint256"
        }
      ],
      "payable": false,
      "stateMutability": "view",
      "type": "function",
      "signature": "0x70a08231"
    },
    {
      "constant": false,
      "inputs": [
        {
          "name": "_spender",
          "type": "address"
        },
        {
          "name": "_value",
          "type": "uint256"
        }
      ],
      "name": "approve",
      "outputs": [
        {
          "name": "success",
          "type": "bool"
        }
      ],
      "payable": false,
      "stateMutability": "nonpayable",
      "type": "function",
      "signature": "0x095ea7b3"
    },
    {
      "constant": true,
      "inputs": [
        {
          "name": "_owner",
          "type": "address"
        },
        {
          "name": "_spender",
          "type": "address"
        }
      ],
      "name": "allowance",
      "outputs": [
        {
          "name": "remaining",
          "type": "uint256"
        }
      ],
      "payable": false,
      "stateMutability": "view",
      "type": "function",
      "signature": "0xdd62ed3e"
    }
  ],
  "bytecode": "0x608060405234801561001057600080fd5b50604051610aad380380610aad8339810180604052608081101561003357600080fd5b81516020830180519193928301929164010000000081111561005457600080fd5b8201602081018481111561006757600080fd5b815164010000000081118282018710171561008157600080fd5b505060208201516040909201805191949293916401000000008111156100a657600080fd5b820160208101848111156100b957600080fd5b81516401000000008111828201871017156100d357600080fd5b50503360009081526001602090815260408220899055908890558651919450610103935060039250860190610130565b506004805460ff191660ff84161790558051610126906005906020840190610130565b50505050506101cb565b828054600181600116156101000203166002900490600052602060002090601f016020900481019282601f1061017157805160ff191683800117855561019e565b8280016001018555821561019e579182015b8281111561019e578251825591602001919060010190610183565b506101aa9291506101ae565b5090565b6101c891905b808211156101aa57600081556001016101b4565b90565b6108d3806101da6000396000f3fe6080604052600436106100b95763ffffffff7c010000000000000000000000000000000000000000000000000000000060003504166306fdde0381146100be578063095ea7b31461014857806318160ddd1461019557806322405443146101bc57806323b872dd146101f557806327e235e314610238578063313ce5671461026b5780635c6581651461029657806370a08231146102d157806395d89b4114610304578063a9059cbb14610319578063dd62ed3e14610352575b600080fd5b3480156100ca57600080fd5b506100d361038d565b6040805160208082528351818301528351919283929083019185019080838360005b8381101561010d5781810151838201526020016100f5565b50505050905090810190601f16801561013a5780820380516001836020036101000a031916815260200191505b509250505060405180910390f35b34801561015457600080fd5b506101816004803603604081101561016b57600080fd5b50600160a060020a03813516906020013561041b565b604080519115158252519081900360200190f35b3480156101a157600080fd5b506101aa610481565b60408051918252519081900360200190f35b3480156101c857600080fd5b50610181600480360360408110156101df57600080fd5b50600160a060020a038135169060200135610487565b34801561020157600080fd5b506101816004803603606081101561021857600080fd5b50600160a060020a0381358116916020810135909116906040013561057c565b34801561024457600080fd5b506101aa6004803603602081101561025b57600080fd5b5035600160a060020a03166106e2565b34801561027757600080fd5b506102806106f4565b6040805160ff9092168252519081900360200190f35b3480156102a257600080fd5b506101aa600480360360408110156102b957600080fd5b50600160a060020a03813581169160200135166106fd565b3480156102dd57600080fd5b506101aa600480360360208110156102f457600080fd5b5035600160a060020a031661071a565b34801561031057600080fd5b506100d3610735565b34801561032557600080fd5b506101816004803603604081101561033c57600080fd5b50600160a060020a038135169060200135610790565b34801561035e57600080fd5b506101aa6004803603604081101561037557600080fd5b50600160a060020a038135811691602001351661087c565b6003805460408051602060026001851615610100026000190190941693909304601f810184900484028201840190925281815292918301828280156104135780601f106103e857610100808354040283529160200191610413565b820191906000526020600020905b8154815290600101906020018083116103f657829003601f168201915b505050505081565b336000818152600260209081526040808320600160a060020a038716808552908352818420869055815186815291519394909390927f8c5be1e5ebec7d5bd14f71427d1e84f3dd0314c0f7b2291e5b200ac8c7c3b925928290030190a350600192915050565b60005481565b600160a060020a03821660009081526001602052604081205482111561050e57604080517f08c379a000000000000000000000000000000000000000000000000000000000815260206004820152601460248201527f496e73756666696369656e742042616c616e6365000000000000000000000000604482015290519081900360640190fd5b600160a060020a0383166000818152600160209081526040808320805487900390553380845292819020805487019055805186815290519293927fddf252ad1be2c89b69c2b068fc378daa952ba7f163c4a11628f55a4df523b3ef929181900390910190a350600192915050565b600160a060020a0383166000818152600260209081526040808320338452825280832054938352600190915281205490919083118015906105bd5750828110155b151561062a57604080517f08c379a000000000000000000000000000000000000000000000000000000000815260206004820152601460248201527f496e73756666696369656e742042616c616e6365000000000000000000000000604482015290519081900360640190fd5b600160a060020a038085166000908152600160205260408082208054870190559187168152208054849003905560001981101561068c57600160a060020a03851660009081526002602090815260408083203384529091529020805484900390555b83600160a060020a031685600160a060020a03167fddf252ad1be2c89b69c2b068fc378daa952ba7f163c4a11628f55a4df523b3ef856040518082815260200191505060405180910390a3506001949350505050565b60016020526000908152604090205481565b60045460ff1681565b600260209081526000928352604080842090915290825290205481565b600160a060020a031660009081526001602052604090205490565b6005805460408051602060026001851615610100026000190190941693909304601f810184900484028201840190925281815292918301828280156104135780601f106103e857610100808354040283529160200191610413565b3360009081526001602052604081205482111561080e57604080517f08c379a000000000000000000000000000000000000000000000000000000000815260206004820152601460248201527f496e73756666696369656e742042616c616e6365000000000000000000000000604482015290519081900360640190fd5b33600081815260016020908152604080832080548790039055600160a060020a03871680845292819020805487019055805186815290519293927fddf252ad1be2c89b69c2b068fc378daa952ba7f163c4a11628f55a4df523b3ef929181900390910190a350600192915050565b600160a060020a0391821660009081526002602090815260408083209390941682529190915220549056fea165627a7a7230582050e9710d5d51e01adab17461af76874238773320cec1013598b2239d0af822330029",
  "source": "pragma solidity>=0.4.2 <0.7.0;\n\nimport \"./TokenInterface.sol\";\n\ncontract Token is TokenInterface {\n    uint256 private constant MAX_UINT256 = 2**256 - 1;\n    mapping(address => uint256) public balances;\n    mapping(address => mapping(address => uint256)) public allowed;\n\n    string public name;\n    uint8 public decimals;\n    string public symbol;\n\n    constructor(\n        uint256 _initialAmount,\n        string memory _tokenName,\n        uint8 _decimalUnits,\n        string memory _tokenSymbol\n    ) public {\n        balances[msg.sender] = _initialAmount;\n        totalSupply = _initialAmount;\n        name = _tokenName;\n        decimals = _decimalUnits;\n        symbol = _tokenSymbol;\n    }\n\n    function transfer(address _to, uint256 _value)\n        public \n        returns (bool success)\n    {\n        require(balances[msg.sender] >= _value, \"Insufficient Balance\");\n        balances[msg.sender] -= _value;\n        balances[_to] += _value;\n        emit Transfer(msg.sender, _to, _value);\n        return true;\n    }\n\n    function cashOut(address _from, uint256 _value)\n        public\n        returns (bool success)\n    {\n        require(balances[_from] >= _value, \"Insufficient Balance\");\n        balances[_from] -= _value;\n        balances[msg.sender] += _value;\n        emit Transfer(_from, msg.sender, _value);\n        return true;\n    }\n\n    function transferFrom(address _from, address _to, uint256 _value)\n        public \n        returns (bool success)\n    {\n        uint256 allowance = allowed[_from][msg.sender];\n        require(\n            balances[_from] >= _value && allowance >= _value,\n            \"Insufficient Balance\"\n        );\n        balances[_to] += _value;\n        balances[_from] -= _value;\n        if (allowance < MAX_UINT256) {\n            allowed[_from][msg.sender] -= _value;\n        }\n        emit Transfer(_from, _to, _value); //solhint-disable-line indent, no-unused-vars\n        return true;\n    }\n\n    function balanceOf(address _owner)\n        public  \n        view\n        returns (uint256 balance)\n    {\n        return balances[_owner];\n    }\n\n    function approve(address _spender, uint256 _value)\n        public\n        \n        returns (bool success)\n    {\n        allowed[msg.sender][_spender] = _value;\n        emit Approval(msg.sender, _spender, _value); //solhint-disable-line indent, no-unused-vars\n        return true;\n    }\n\n    function allowance(address _owner, address _spender)\n        public \n        view\n \n        returns (uint256 remaining)\n    {\n        return allowed[_owner][_spender];\n    }\n}\n",
  "sourcePath": "/home/mgeo/Desktop/SCF-Blockchain/contracts/token/Token.sol",
  "compiler": {
    "name": "solc",
    "version": "0.5.0+commit.1d4f565a.Emscripten.clang"
  },
  "schemaVersion": "3.0.1",
  "updatedAt": "2020-05-27T17:38:51.276Z",
  "devdoc": {
    "methods": {}
  },
  "userdoc": {
    "methods": {}
  }
}